{
  "_format": "hh-sol-artifact-1",
  "contractName": "Transactions",
  "sourceName": "contracts/Transactions.sol",
  "abi": [
    {
      "inputs": [],
      "stateMutability": "nonpayable",
      "type": "constructor"
    },
    {
      "anonymous": false,
      "inputs": [
        {
          "indexed": false,
          "internalType": "address",
          "name": "_from",
          "type": "address"
        },
        {
          "indexed": false,
          "internalType": "address",
          "name": "_to",
          "type": "address"
        },
        {
          "indexed": false,
          "internalType": "uint256",
          "name": "_amount",
          "type": "uint256"
        },
        {
          "indexed": false,
          "internalType": "string",
          "name": "_msg",
          "type": "string"
        },
        {
          "indexed": false,
          "internalType": "uint256",
          "name": "_timestamp",
          "type": "uint256"
        },
        {
          "indexed": false,
          "internalType": "string",
          "name": "_keyword",
          "type": "string"
        }
      ],
      "name": "Transfer",
      "type": "event"
    },
    {
      "inputs": [
        {
          "internalType": "address payable",
          "name": "_receiver",
          "type": "address"
        },
        {
          "internalType": "uint256",
          "name": "_amount",
          "type": "uint256"
        },
        {
          "internalType": "string",
          "name": "_message",
          "type": "string"
        },
        {
          "internalType": "string",
          "name": "_keyword",
          "type": "string"
        }
      ],
      "name": "addToBlockchain",
      "outputs": [],
      "stateMutability": "nonpayable",
      "type": "function"
    },
    {
      "inputs": [],
      "name": "getAllTransactionCount",
      "outputs": [
        {
          "internalType": "uint256",
          "name": "",
          "type": "uint256"
        }
      ],
      "stateMutability": "view",
      "type": "function"
    },
    {
      "inputs": [],
      "name": "getAllTransactions",
      "outputs": [
        {
          "components": [
            {
              "internalType": "address",
              "name": "sender",
              "type": "address"
            },
            {
              "internalType": "address",
              "name": "receiver",
              "type": "address"
            },
            {
              "internalType": "uint256",
              "name": "amount",
              "type": "uint256"
            },
            {
              "internalType": "string",
              "name": "message",
              "type": "string"
            },
            {
              "internalType": "uint256",
              "name": "timestamp",
              "type": "uint256"
            },
            {
              "internalType": "string",
              "name": "keyword",
              "type": "string"
            }
          ],
          "internalType": "struct Transactions.TransferStruct[]",
          "name": "",
          "type": "tuple[]"
        }
      ],
      "stateMutability": "view",
      "type": "function"
    },
    {
      "inputs": [
        {
          "internalType": "uint256",
          "name": "",
          "type": "uint256"
        }
      ],
      "name": "transactions",
      "outputs": [
        {
          "internalType": "address",
          "name": "sender",
          "type": "address"
        },
        {
          "internalType": "address",
          "name": "receiver",
          "type": "address"
        },
        {
          "internalType": "uint256",
          "name": "amount",
          "type": "uint256"
        },
        {
          "internalType": "string",
          "name": "message",
          "type": "string"
        },
        {
          "internalType": "uint256",
          "name": "timestamp",
          "type": "uint256"
        },
        {
          "internalType": "string",
          "name": "keyword",
          "type": "string"
        }
      ],
      "stateMutability": "view",
      "type": "function"
    }
  ],
  "bytecode": "0x608060405234801561001057600080fd5b5033600160006101000a81548173ffffffffffffffffffffffffffffffffffffffff021916908373ffffffffffffffffffffffffffffffffffffffff160217905550610fda806100616000396000f3fe608060405234801561001057600080fd5b506004361061004c5760003560e01c806327506f53146100515780635e4e25201461006f5780639ace38c21461008d578063cc2d7ead146100c2575b600080fd5b6100596100de565b60405161006691906109fe565b60405180910390f35b610077610321565b6040516100849190610a2f565b60405180910390f35b6100a760048036038101906100a29190610a8a565b61032a565b6040516100b996959493929190610b10565b60405180910390f35b6100dc60048036038101906100d79190610cf2565b6104c6565b005b60606002805480602002602001604051908101604052809291908181526020016000905b8282101561031857838290600052602060002090600602016040518060c00160405290816000820160009054906101000a900473ffffffffffffffffffffffffffffffffffffffff1673ffffffffffffffffffffffffffffffffffffffff1673ffffffffffffffffffffffffffffffffffffffff1681526020016001820160009054906101000a900473ffffffffffffffffffffffffffffffffffffffff1673ffffffffffffffffffffffffffffffffffffffff1673ffffffffffffffffffffffffffffffffffffffff168152602001600282015481526020016003820180546101eb90610dc0565b80601f016020809104026020016040519081016040528092919081815260200182805461021790610dc0565b80156102645780601f1061023957610100808354040283529160200191610264565b820191906000526020600020905b81548152906001019060200180831161024757829003601f168201915b505050505081526020016004820154815260200160058201805461028790610dc0565b80601f01602080910402602001604051908101604052809291908181526020018280546102b390610dc0565b80156103005780601f106102d557610100808354040283529160200191610300565b820191906000526020600020905b8154815290600101906020018083116102e357829003601f168201915b50505050508152505081526020019060010190610102565b50505050905090565b60008054905090565b6002818154811061033a57600080fd5b90600052602060002090600602016000915090508060000160009054906101000a900473ffffffffffffffffffffffffffffffffffffffff16908060010160009054906101000a900473ffffffffffffffffffffffffffffffffffffffff16908060020154908060030180546103af90610dc0565b80601f01602080910402602001604051908101604052809291908181526020018280546103db90610dc0565b80156104285780601f106103fd57610100808354040283529160200191610428565b820191906000526020600020905b81548152906001019060200180831161040b57829003601f168201915b50505050509080600401549080600501805461044390610dc0565b80601f016020809104026020016040519081016040528092919081815260200182805461046f90610dc0565b80156104bc5780601f10610491576101008083540402835291602001916104bc565b820191906000526020600020905b81548152906001019060200180831161049f57829003601f168201915b5050505050905086565b600160009054906101000a900473ffffffffffffffffffffffffffffffffffffffff1673ffffffffffffffffffffffffffffffffffffffff163373ffffffffffffffffffffffffffffffffffffffff1614610556576040517f08c379a000000000000000000000000000000000000000000000000000000000815260040161054d90610e3e565b60405180910390fd5b60008081548092919061056890610e8d565b919050555060026040518060c001604052803373ffffffffffffffffffffffffffffffffffffffff1681526020018673ffffffffffffffffffffffffffffffffffffffff16815260200185815260200184815260200142815260200183815250908060018154018082558091505060019003906000526020600020906006020160009091909190915060008201518160000160006101000a81548173ffffffffffffffffffffffffffffffffffffffff021916908373ffffffffffffffffffffffffffffffffffffffff16021790555060208201518160010160006101000a81548173ffffffffffffffffffffffffffffffffffffffff021916908373ffffffffffffffffffffffffffffffffffffffff1602179055506040820151816002015560608201518160030190805190602001906106a5929190610716565b506080820151816004015560a08201518160050190805190602001906106cc929190610716565b5050507f416cfa4330a4565f45c2fd2dd4826a83a37443aba2ce6f79477c7355afac35fa33858585428660405161070896959493929190610f35565b60405180910390a150505050565b82805461072290610dc0565b90600052602060002090601f016020900481019282610744576000855561078b565b82601f1061075d57805160ff191683800117855561078b565b8280016001018555821561078b579182015b8281111561078a57825182559160200191906001019061076f565b5b509050610798919061079c565b5090565b5b808211156107b557600081600090555060010161079d565b5090565b600081519050919050565b600082825260208201905092915050565b6000819050602082019050919050565b600073ffffffffffffffffffffffffffffffffffffffff82169050919050565b6000610810826107e5565b9050919050565b61082081610805565b82525050565b6000819050919050565b61083981610826565b82525050565b600081519050919050565b600082825260208201905092915050565b60005b8381101561087957808201518184015260208101905061085e565b83811115610888576000848401525b50505050565b6000601f19601f8301169050919050565b60006108aa8261083f565b6108b4818561084a565b93506108c481856020860161085b565b6108cd8161088e565b840191505092915050565b600060c0830160008301516108f06000860182610817565b5060208301516109036020860182610817565b5060408301516109166040860182610830565b506060830151848203606086015261092e828261089f565b91505060808301516109436080860182610830565b5060a083015184820360a086015261095b828261089f565b9150508091505092915050565b600061097483836108d8565b905092915050565b6000602082019050919050565b6000610994826107b9565b61099e81856107c4565b9350836020820285016109b0856107d5565b8060005b858110156109ec57848403895281516109cd8582610968565b94506109d88361097c565b925060208a019950506001810190506109b4565b50829750879550505050505092915050565b60006020820190508181036000830152610a188184610989565b905092915050565b610a2981610826565b82525050565b6000602082019050610a446000830184610a20565b92915050565b6000604051905090565b600080fd5b600080fd5b610a6781610826565b8114610a7257600080fd5b50565b600081359050610a8481610a5e565b92915050565b600060208284031215610aa057610a9f610a54565b5b6000610aae84828501610a75565b91505092915050565b610ac081610805565b82525050565b600082825260208201905092915050565b6000610ae28261083f565b610aec8185610ac6565b9350610afc81856020860161085b565b610b058161088e565b840191505092915050565b600060c082019050610b256000830189610ab7565b610b326020830188610ab7565b610b3f6040830187610a20565b8181036060830152610b518186610ad7565b9050610b606080830185610a20565b81810360a0830152610b728184610ad7565b9050979650505050505050565b6000610b8a826107e5565b9050919050565b610b9a81610b7f565b8114610ba557600080fd5b50565b600081359050610bb781610b91565b92915050565b600080fd5b600080fd5b7f4e487b7100000000000000000000000000000000000000000000000000000000600052604160045260246000fd5b610bff8261088e565b810181811067ffffffffffffffff82111715610c1e57610c1d610bc7565b5b80604052505050565b6000610c31610a4a565b9050610c3d8282610bf6565b919050565b600067ffffffffffffffff821115610c5d57610c5c610bc7565b5b610c668261088e565b9050602081019050919050565b82818337600083830152505050565b6000610c95610c9084610c42565b610c27565b905082815260208101848484011115610cb157610cb0610bc2565b5b610cbc848285610c73565b509392505050565b600082601f830112610cd957610cd8610bbd565b5b8135610ce9848260208601610c82565b91505092915050565b60008060008060808587031215610d0c57610d0b610a54565b5b6000610d1a87828801610ba8565b9450506020610d2b87828801610a75565b935050604085013567ffffffffffffffff811115610d4c57610d4b610a59565b5b610d5887828801610cc4565b925050606085013567ffffffffffffffff811115610d7957610d78610a59565b5b610d8587828801610cc4565b91505092959194509250565b7f4e487b7100000000000000000000000000000000000000000000000000000000600052602260045260246000fd5b60006002820490506001821680610dd857607f821691505b60208210811415610dec57610deb610d91565b5b50919050565b7f6e6f7420616e206f776e65722121210000000000000000000000000000000000600082015250565b6000610e28600f83610ac6565b9150610e3382610df2565b602082019050919050565b60006020820190508181036000830152610e5781610e1b565b9050919050565b7f4e487b7100000000000000000000000000000000000000000000000000000000600052601160045260246000fd5b6000610e9882610826565b91507fffffffffffffffffffffffffffffffffffffffffffffffffffffffffffffffff821415610ecb57610eca610e5e565b5b600182019050919050565b6000819050919050565b6000610efb610ef6610ef1846107e5565b610ed6565b6107e5565b9050919050565b6000610f0d82610ee0565b9050919050565b6000610f1f82610f02565b9050919050565b610f2f81610f14565b82525050565b600060c082019050610f4a6000830189610ab7565b610f576020830188610f26565b610f646040830187610a20565b8181036060830152610f768186610ad7565b9050610f856080830185610a20565b81810360a0830152610f978184610ad7565b905097965050505050505056fea26469706673582212207b3a6b11f06435e78be4d9c6cc6124c78d74dfbeca5b769b7e4c8344c06d438c64736f6c63430008090033",
  "linkReferences": {},
  "deployedLinkReferences": {}
}